:100000000C94C1000C9492060C946B060C94E900BD
:100010000C94E9000C943A070C94E9000C94E90064
:100020000C94E9000C9411070C94E9000C94E9007D
:100030000C94E9000C94E9000C94E9000C94E9009C
:100040000C94860A0C94E9000C94DF060C94B90613
:100050000C94E9000C94E9000C94E9000C94E9007C
:100060000C94E9000C94E90008000000BE922449B9
:10007000123EABAAAA2ABECDCCCC4C3E00000080DA
:10008000BEABAAAAAA3E00000000BF000000803F4D
:100090000000000000084178D3BB4387D1133D190D
:1000A0000E3CC3BD4282AD2B3E68EC8276BED98F3A
:1000B000E1A93E4C80EFFFBE01C4FF7F3F0000007E
:1000C000000007634236B79BD8A71A39685618AEA6
:1000D000BAAB558C1D3CB7CC5763BD6DEDFD753E7D
:1000E000F6177231BF000000803F4E414E494E4925
:1000F0005459494E46CDCCCC3D0AD7233C17B7D1F5
:100100003877CC2B329595E6241FB14F0A0000209A
:10011000410000C84200401C4620BCBE4CCA1B0E19
:100120005AAEC59D7400000000240027002A00007C
:10013000000000250028002B00040404040404042B
:100140000402020202020203030303030301020486
:100150000810204080010204081020010204081049
:100160002000000008000201000003040700000056
:10017000000000000000000000230026002900000D
:10018000361211241FBECFEFD8E0DEBFCDBF25E071
:10019000A0E3B4E001C01D92A13CB207E1F714E076
:1001A000A0E0B1E0EEE6F8E302C005900D92A033C6
:1001B000B107D9F710E0C1ECD0E004C02197FE01EF
:1001C0000E94161AC03CD107C9F70E94D00A0C94AD
:1001D000351C0C9400000895CF92DF92EF92FF92AD
:1001E0000F931F93CF93DF936C017A018B01C0E0D3
:1001F000D0E0CE15DF0581F0D8016D918D01D601DB
:10020000ED91FC910190F081E02DC6010995892BBB
:1002100011F02196EECF7E01C701DF91CF911F91A2
:100220000F91FF90EF90DF90CF900895089580E0B8
:1002300090E00895FC01538D448D252F30E0842FEC
:1002400090E0821B930B541710F0CF9608950197FE
:100250000895FC01918D828D981761F0828DDF01E8
:10026000A80FB11D5D968C91928D9F5F9F73928FA9
:1002700090E008958FEF9FEF0895FC01918D828D9E
:10028000981731F0828DE80FF11D858D90E008956B
:100290008FEF9FEF0895FC01918D228D892F90E0C3
:1002A000805C9F4F821B91098F73992708958CE77B
:1002B00094E00E944B0121E0892B09F420E0822F79
:1002C0000895FC01848DDF01A80FB11DA35ABF4F13
:1002D0002C91848D90E001968F739927848FA68945
:1002E000B7892C93A089B1898C91837080648C9399
:1002F000938D848D981306C00288F389E02D808148
:100300008F7D80830895EF92FF920F931F93CF9379
:10031000DF93EC0181E0888F9B8D8C8D981305C055
:10032000E889F989808185FD26C0F62E0B8D10E0C5
:100330000F5F1F4F0F731127E02E8C8DE8120CC03A
:100340000FB607FCFACFE889F989808185FFF5CFE0
:10035000CE010E946101F1CF8B8DFE01E80FF11DEE
:10036000E35AFF4FF0829FB7F8940B8FEA89FB891D
:10037000808180620AC09FB7F894EE89FF8960830C
:10038000E889F98980818370806480839FBF81E0E0
:1003900090E0DF91CF911F910F91FF90EF90089522
:1003A000CF93DF93EC01888D8823C9F0EA89FB891C
:1003B000808185FD05C0A889B9898C9186FD0FC013
:1003C0000FB607FCF5CF808185FFF2CFA889B989E8
:1003D0008C9185FFEDCFCE010E946101E7CFDF91C7
:1003E000CF91089580E090E0892B29F00E94570179
:1003F00081110C9400000895809156049091570447
:10040000A0915804B09159040196A11DB11D80938B
:10041000560490935704A0935804B09359048091C4
:10042000560490915704A0915804B0915904813515
:10043000934CA105B10550F0E8988BEE90E09093B5
:100440008D0180938C0181E080933D0408950E948A
:10045000031C8CE493E00E94B807E0E0F0E009940C
:10046000CF93DF93EC0186E593E00E94B807CE01BD
:10047000DF91CF910C94BA0781E080935E0460E035
:1004800070E085E00E94020A60E070E08AE00E946D
:10049000020A60E070E086E00E94020A87E693E0CC
:1004A0000C94BA078091520490915304A091540483
:1004B000B09155040196A11DB11D809352049093F3
:1004C0005304A0935404B093550480915204909126
:1004D0005304A0915404B0915504893E9340A10562
:1004E000B10540F081E080933C0460E070E089E079
:1004F0000C94020A08950E9400090097D1F00E940E
:10050000A61360935A0470935B0480935C049093E9
:100510005D048EE693E00E94B80760915A047091E2
:100520005B0480915C0490915D044AE050E00C947F
:10053000090808950E940009009731F10E9488136C
:10054000092E000CAA0BBB0B8093880190938901A4
:10055000A0938A01B0938B0144E050E06CE170E01D
:1005600088E891E00E94B71683E793E00E94B807FD
:10057000609188017091890180918A0190918B012D
:100580004AE050E00C94090808950E940009009781
:1005900031F10E948813092E000CAA0BBB0B80932B
:1005A000980190939901A0939A01B0939B0144E024
:1005B00050E068E170E088E991E00E94B71688E8B1
:1005C00093E00E94B8076091980170919901809121
:1005D0009A0190919B014AE050E00C94090808951B
:1005E0000F931F930E940009009709F447C00E94CF
:1005F000881397FD09C08F3F910509F04CF4BC01A9
:10060000990F880B990B08C060E070E0CB0104C023
:100610006FEF70E080E090E060939401709395013B
:10062000809396019093970100913E0410913F04AE
:10063000209140043091410401301105210531051C
:1006400019F485E00E94020A44E050E06CE070E09A
:1006500084E991E00E94B71684EB93E00E94B8070A
:10066000609194017091950180919601909197010C
:100670004AE050E01F910F910C9409081F910F91CF
:1006800008950E940009009731F10E948813092EF5
:10069000000CAA0BBB0B80933E0490933F04A093E5
:1006A0004004B093410444E050E068E070E08EE321
:1006B00094E00E94B71687E993E00E94B807609122
:1006C0003E0470913F0480914004909141044AE0BF
:1006D00050E00C94090808950E940009009731F138
:1006E0000E948813092E000CAA0BBB0B809390016B
:1006F00090939101A0939201B093930144E050E054
:1007000064E170E080E991E00E94B71682EA93E02C
:100710000E94B807609190017091910180919201BF
:10072000909193014AE050E00C94090808950E94CA
:1007300000090097B9F00E948813181619064CF4A6
:100740006091940170E085E00E94020A89E393E0E1
:1007500007C060E070E085E00E94020A82E493E056
:100760000C94BA0708950E940009009769F10E944D
:100770008813092E000CAA0BBB0B809334049093B2
:100780003504A0933604B093370444E050E060E1B0
:1007900070E084E394E00E94B71660913404709195
:1007A00035048AE00E94020A81EB93E00E94B807B8
:1007B000609134047091350480913604909137042F
:1007C0004AE050E00C94090808950E94000900973F
:1007D000C9F10E94881397FD0BC08F3F910519F056
:1007E00014F08FEF90E0092E000CAA0BBB0B03C096
:1007F00080E090E0DC018093380490933904A0936A
:100800003A04B0933B0444E050E064E270E088E3D3
:1008100094E00E94B716609138047091390489E021
:100820000E94020A80EC93E00E94B80760913804AD
:100830007091390480913A0490913B044AE050E071
:100840000C9409080895CF93DF9300D0CDB7DEB79D
:1008500087E290E09A83898346EA55E0BE016F5FA4
:100860007F4F80E090E00E94D613FC01892BC9F0F5
:100870009FE7A0E0B1E001900D929A95E1F7109208
:100880007F018DEC93E00E94B80780E091E00E9428
:10089000BA0740E850E060E072E080E091E00E943A
:1008A000B7160F900F90DF91CF910895EF92FF92BE
:1008B0000F931F93CF93DF93CDB7DEB760970FB63B
:1008C000F894DEBF0FBECDBF0E9400097C010E94DC
:1008D00000098C01E114F10409F467C0892B09F4C3
:1008E00064C040E150E060E070E0C7010E948F12F8
:1008F0006D877E878F87988B40E150E060E070E0E5
:10090000C8010E948F1269877A878B879C878AED3E
:1009100093E00E94B80769857A858B859C8540E1C4
:100920000E94C80785EE93E00E94B8076D857E851A
:100930008F85988940E10E94C80783E294E00E9475
:10094000BA0744E050E060E071E0CE0109960E94F1
:10095000B71644E050E064E071E0CE010D960E94CD
:10096000B71644E050E060E071E0CE0105960E94C9
:10097000A71644E050E064E071E0CE0101960E94C9
:10098000A71688EE93E00E94B8076D817E818F8163
:10099000988540E150E00E94090869817A818B8145
:1009A0009C8140E150E00E94090860960FB6F894DF
:1009B000DEBF0FBECDBFDF91CF911F910F91FF9092
:1009C000EF9008958DEC93E00E94B80780E091E0ED
:1009D0000E94BA078AED93E00E94B8076091300444
:1009E00070913104809132049091330440E150E0E1
:1009F0000E94090887EF93E00E94B80781E094E025
:100A00000E94BA0787E094E00E94B8076091420410
:100A10007091430480914404909145040E94F10830
:100A200081E194E00E94B80760914A0470914B0400
:100A300080914C0490914D040E94F10883E793E06B
:100A40000E94B807609188017091890180918A01A4
:100A500090918B014AE050E00E94090882EA93E0FD
:100A60000E94B8076091900170919101809192016C
:100A7000909193014AE050E00E94090888E893E0D1
:100A80000E94B807609198017091990180919A0134
:100A900090919B014AE050E00E94090887E993E0A9
:100AA0000E94B80760913E0470913F048091400419
:100AB000909141044AE050E00E94090884EB93E0E1
:100AC0000E94B80760919401709195018091960100
:100AD000909197014AE050E00E94090881EB93E071
:100AE0000E94B807609134047091350480913604F7
:100AF000909137044AE050E00E94090880EC93E0AE
:100B00000E94B807609138047091390480913A04CA
:100B100090913B044AE050E00C94090880914E0407
:100B200090914F04A0915004B091510480934A04D5
:100B300090934B04A0934C04B0934D0444E050E0D8
:100B400064E070E08AE494E00E94B716809180012E
:100B500090918101A0918201B09183019C01AD012E
:100B6000505860E070E080E291E40E94BD189B0163
:100B7000AC0160914A0470914B0480914C049091B7
:100B80004D040E94E91560934204709343048093DE
:100B900044049093450481E194E00E94B807609179
:100BA0004A0470914B0480914C0490914D040C9434
:100BB000F1080E940009009709F44BC00E948413B9
:100BC00060938001709381018093820190938301EF
:100BD0009B01AC01505860E070E080E291E40E941B
:100BE000BD189B01AC0160914A0470914B04809147
:100BF0004C0490914D040E94E91560934204709357
:100C00004304809344049093450444E050E060E042
:100C100070E082E494E00E94B71686E194E00E94BE
:100C2000B80760918001709181018091820190915B
:100C300083010E94F10887E094E00E94B807609168
:100C400042047091430480914404909145040C94B3
:100C5000F10808950F931F930E94610A00914604C2
:100C6000109147042091480430914904DC01CB01E4
:100C700046E0B695A795979587954A95D1F7801B3D
:100C8000910BA20BB30BB370893E23E09207A10531
:100C9000B105F0F021E02093A00180939C01909396
:100CA0009D01A0939E01B0939F010E94610ADC0107
:100CB000CB0126E0B695A795979587952A95D1F70C
:100CC0008093460490934704A0934804B09349044A
:100CD0001F910F9108951F920F920FB60F9211243A
:100CE0002F933F934F935F936F937F938F939F9334
:100CF000AF93BF93EF93FF93E0918E01F0918F013B
:100D00000995FF91EF91BF91AF919F918F917F9145
:100D10006F915F914F913F912F910F900FBE0F9068
:100D20001F9018951F920F920FB60F9211242F93B8
:100D30003F934F935F936F937F938F939F93AF9363
:100D4000BF93EF93FF93E0918C01F0918D01099592
:100D5000FF91EF91BF91AF919F918F917F916F9193
:100D60005F914F913F912F910F900FBE0F901F9069
:100D700018951F920F920FB60F9211242F933F9345
:100D80004F935F936F937F938F939F93AF93BF9393
:100D9000EF93FF938CE794E00E946101FF91EF9144
:100DA000BF91AF919F918F917F916F915F914F9183
:100DB0003F912F910F900FBE0F901F9018951F928B
:100DC0000F920FB60F9211242F938F939F93EF934F
:100DD000FF93E0918C04F0918D048081E091920466
:100DE000F091930482FD12C09081809195048F5FF1
:100DF0008F7320919604821751F0E0919504F0E0F2
:100E0000E458FB4F958F8093950401C08081FF913A
:100E1000EF919F918F912F910F900FBE0F901F9088
:100E200018951F920F920FB60F9211248F939F93D4
:100E3000AF93BF9380915A0490915B04A0915C049E
:100E4000B0915D040196A11DB11D80935A04909349
:100E50005B04A0935C04B0935D0483E88093B200CC
:100E600017BABF91AF919F918F910F900FBE0F90C6
:100E70001F9018951F920F920FB60F9211241F9377
:100E80002F933F934F935F936F937F938F939F9392
:100E9000AF93BF93CF93DF93EF93FF93E091A805B8
:100EA000F091A905808180937B041091AF0580911A
:100EB0007B049091AD0520917B044091AE0530916B
:100EC0007B04309534232923932F922B8127192FCC
:100ED000182380917B048093AF05C091B005D09119
:100EE000B1052097B1F09B81812F892371F080910A
:100EF0007B04892391E009F490E090937A048C813B
:100F000080937904E881F98109950D80DE81C02DF7
:100F1000E8CF9BB32091AC05922321F08BB3822BB9
:100F20008BBBBCCFFF91EF91DF91CF91BF91AF9180
:100F30009F918F917F916F915F914F913F912F91F1
:100F40001F910F900FBE0F901F901895009769F09A
:100F5000FC0101900020E9F73197AF01481B590BC4
:100F6000BC018CE794E00C94EC0080E090E00895E4
:100F70000C94A607CF93DF930E94A607EC0181E2B1
:100F800094E00E94A6078C0F9D1FDF91CF910895DA
:100F90008F929F92AF92BF920F931F93CF93DF9345
:100FA000CDB7DEB7A1970FB6F894DEBF0FBECDBFA9
:100FB00019A2423008F44AE08E010F5D1F4F842EC3
:100FC000912CA12CB12CA50194010E94DF16E62FD3
:100FD000B901CA0101501109EA3014F4E05D01C001
:100FE000E95CD801EC93232B242B252B61F7C80156
:100FF0000E94A607A1960FB6F894DEBF0FBECDBF24
:10100000DF91CF911F910F91BF90AF909F908F90E4
:101010000895CF93DF934115510529F48CE794E0AF
:101020000E94830102C00E94C807EC0181E294E0A3
:101030000E94A6078C0F9D1FDF91CF9108958F927C
:101040009F92AF92BF92CF92DF92EF92FF920F9357
:101050001F93CF93DF936B017C01142F9B01AC0195
:101060000E940D19882319F084E294E027C04601FC
:101070005701E894B7F82FEF3FEF4FE75FE7C5015F
:10108000B4010E940D1981110DC02FEF3FEF4FE702
:101090005FE7C501B4010E94831518161CF488E2AD
:1010A00094E00CC02FEF3FEF4FE75FE4C701B601BC
:1010B0000E946018181684F48CE294E0DF91CF91BE
:1010C0001F910F91FF90EF90DF90CF90BF90AF9066
:1010D0009F908F900C94A6072FEF3FEF4FE75FECA8
:1010E000C701B6010E94831587FDE6CF20E030E0FE
:1010F000A901C701B6010E94831587FF0BC06DE2ED
:101100008CE794E00E948301EC01F7FAF094F7F881
:10111000F09402C0C0E0D0E000E060E070E080E069
:101120009FE3101741F020E030E040E251E40E94DC
:10113000BF170F5FF6CFA70196010E9453176B01EF
:101140007C010E9431184B015C014AE00E94C807F3
:10115000C80FD91F1123B9F1C501B4010E94881528
:101160009B01AC01C701B6010E9452176B017C01C3
:101170006EE28CE794E00E948301C80FD91F20E043
:1011800030E040E251E4C701B6010E94E9154B018D
:101190005C010E9431186B01E12CF12C4AE0C7017F
:1011A000B6010E94C807C80FD91FC701B6010E9427
:1011B00088159B01AC01C501B4010E9452176B0157
:1011C0007C011150E1F6CE01DF91CF911F910F917B
:1011D000FF90EF90DF90CF90BF90AF909F908F9057
:1011E0000895CF93DF9342E00E941F08EC0181E253
:1011F00094E00E94A6078C0F9D1FDF91CF91089568
:1012000046EA55E06EE175E080E090E00C94D6137C
:10121000E9E6F0E080818C608083E99A0895CF93BD
:10122000DF93DC01FB0142838AE296E091838083B5
:101230001296CD91DC91139798818381892B8883B5
:1012400082818D7F813041F415969C911597838121
:10125000892B15968C93159782818150823040F4AA
:1012600016969C9116978381892B16968C931697C8
:101270009091680014968C91892B80936800DF917F
:10128000CF910895EF92FF920F931F93CF93DF9327
:101290007C018B01C9E1D5E08A8190E001962BE0C9
:1012A000289FB001299F700D1124888199810E9487
:1012B0003D1B998388832A8148E050E0B7013BE0D9
:1012C000239F800D911D11240E94261C8A81E88194
:1012D000F9819BE0899FE00DF11D112412870187A0
:1012E0008F5F8A83DF91CF911F910F91FF90EF90D5
:1012F000089590E0FC01EF59FE4F2491FC01E35B5F
:10130000FE4F3491FC01E75CFE4FE491EE2309F4BB
:101310003CC0222339F1233091F038F42130A9F078
:10132000223001F584B58F7D12C0273091F028302E
:10133000A1F02430B9F4809180008F7D03C08091AA
:1013400080008F77809380000DC084B58F7784BD37
:1013500009C08091B0008F7703C08091B0008F7D6D
:101360008093B000F0E0EE0FFF1FE15DFE4FA5910E
:10137000B4919FB7F894611104C08C9130953823D3
:1013800002C0EC913E2B3C939FBF0895CF93DF9317
:1013900090E0FC01E35BFE4F2491FC01E75CFE4F13
:1013A0008491882361F190E0880F991FFC01EB5D27
:1013B000FE4FC591D491FC01E15DFE4FA591B49122
:1013C000611109C09FB7F894888120958223888392
:1013D000EC912E230BC0623061F49FB7F8948881A2
:1013E000322F309583238883EC912E2B2C939FBF33
:1013F00006C08FB7F894E8812E2B28838FBFDF912A
:10140000CF9108951F93CF93DF93182FEB0161E0E5
:101410000E94C609209711F460E004C0CF3FD105B7
:1014200039F461E0812FDF91CF911F910C947909FC
:10143000E12FF0E0EF59FE4FE491E330F9F048F48A
:10144000E130B9F0E230A1F584B5806284BDC8BD59
:1014500034C0E730E9F0E83019F1E43049F5809123
:101460008000806280938000D0938B00C0938A00BC
:1014700024C084B5806884BDC7BD1FC08091800032
:10148000806880938000D0938900C093880015C045
:101490008091B00080688093B000C093B3000DC00D
:1014A0008091B00080628093B000C093B40005C00A
:1014B000C038D1050CF0B5CFAFCFDF91CF911F91E0
:1014C00008953FB7F8948091B7059091B805A09121
:1014D000B905B091BA0526B5A89B05C02F3F19F0F4
:1014E0000196A11DB11D3FBFBA2FA92F982F8827A4
:1014F000820F911DA11DB11DBC01CD0142E0660FFF
:10150000771F881F991F4A95D1F708951F920F9250
:101510000FB60F9211242F933F938F939F93AF9306
:10152000BF938091B3059091B405A091B505B0919A
:10153000B6053091B20523E0230F2D3720F4019634
:10154000A11DB11D05C026E8230F0296A11DB11DE6
:101550002093B2058093B3059093B405A093B5058D
:10156000B093B6058091B7059091B805A091B905E3
:10157000B091BA050196A11DB11D8093B705909356
:10158000B805A093B905B093BA05BF91AF919F91EB
:101590008F913F912F910F900FBE0F901F90189534
:1015A000CF93DF9300D000D0CDB7DEB7789484B569
:1015B000826084BD84B5816084BD85B5826085BD4F
:1015C00085B5816085BD80916E00816080936E00DD
:1015D00010928100809181008260809381008091CF
:1015E0008100816080938100809180008160809380
:1015F00080008091B10084608093B1008091B00040
:1016000081608093B00080917A00846080937A003A
:1016100080917A00826080937A0080917A00816064
:1016200080937A0080917A00806880937A0010928B
:10163000C10044E050E060E070E082E494E00E9489
:10164000A71644E050E064E070E08AE494E00E9471
:10165000A7162091420430914304409144045091D4
:10166000450460914A0470914B0480914C04909120
:101670004D040E94BF179B01AC0160E070E080E266
:1016800091E40E94BD186093800170938101809362
:1016900082019093830144E050E06CE170E088E8BF
:1016A00091E00E94A71644E050E064E170E080E918
:1016B00091E00E94A71644E050E068E170E088E9FC
:1016C00091E00E94A71644E050E068E070E08EE3ED
:1016D00094E00E94A71644E050E06CE070E084E9DA
:1016E00091E00E94A71644E050E060E170E084E3DE
:1016F00094E00E94A71644E050E064E270E088E3C2
:1017000094E00E94A71644E050E060E071E08FE5AD
:1017100094E00E94A71644E050E064E071E080E3AA
:1017200094E00E94A71640E850E060E072E080E09C
:1017300091E00E94A7168091880190918901A09163
:101740008A01B0918B01893B9B40A105B105A0F0B6
:1017500080E293E0A0E0B0E080938801909389015B
:10176000A0938A01B0938B0144E050E06CE170E0FB
:1017700088E891E00E94B7168091900190919101C4
:10178000A0919201B0919301813A9648A140B10590
:10179000A0F088EE93E0A0E0B0E0809390019093F9
:1017A0009101A0939201B093930144E050E064E171
:1017B00070E080E991E00E94B716809198019091C5
:1017C0009901A0919A01B0919B0181349244AF405C
:1017D000B105A0F088E893E1A0E0B0E08093980123
:1017E00090939901A0939A01B0939B0144E050E03B
:1017F00068E170E088E991E00E94B7168091940159
:1018000090919501A0919601B09197018F3F91051C
:10181000A105B105A9F0A0F08FEF90E0A0E0B0E045
:101820008093940190939501A0939601B0939701B2
:1018300044E050E06CE070E084E991E00E94B7166B
:101840008091340490913504A0913604B09137040E
:101850008F3F9105A105B105A9F0A0F08FEF90E0B1
:10186000A0E0B0E08093340490933504A093360454
:10187000B093370444E050E060E170E084E394E02A
:101880000E94B7168091380490913904A0913A04CF
:10189000B0913B048F3F9105A105B105A9F0A0F0DF
:1018A0008DE790E0A0E0B0E0809338049093390495
:1018B000A0933A04B0933B0444E050E064E270E04B
:1018C00088E394E00E94B71661E08DE00E94C609AB
:1018D00060E08DE00E94790962E082E00E94C60922
:1018E0008CEF91E090938D0180938C018091690041
:1018F000836080936900E89A62E083E00E94C609F1
:1019000082E592E090938F0180938E010E940809F6
:1019100060E082E10E94C60961E085E00E94C6099C
:1019200060E070E085E00E94020A61E08AE00E94C7
:10193000C60960E070E08AE00E94020A62E084E08A
:101940000E94C609EDE3F1E0E491EE2309F458C0EA
:10195000E43029F488EA95E09A83898302C01A82E8
:101960001982A981BA81ED91FC9111978081179616
:101970008C9317971896ED90FC901997E114F10449
:1019800071F08701F8018481843019F442E0B801D4
:1019900033C085819681009721F08C01F3CF00E060
:1019A00010E087E090E00E941C1ADC0111961C9266
:1019B0001E9212961C921297892B11F184E01496B4
:1019C0008C93149782E012968C93129716961C9221
:1019D0001E921597E1E5F1E0E4911396EC931397CD
:1019E000EF2829F4E981FA81B187A08703C0F801C3
:1019F000B683A58342E0BD0189819A810E940F09C7
:101A000061E086E00E94C6096091840170918501C1
:101A1000809186019091870186E00E94020A85B537
:101A2000887F816085BD80918100887F81608093FF
:101A300081001092B10082E88093B20017BA81E071
:101A4000809370001092B00085E08093B1006091A7
:101A500038047091390489E00E94020AE0918C04F4
:101A6000F0918D0482E08083E0918804F0918904F4
:101A70001082E0918A04F0918B0480E180831092BF
:101A80009404E0919004F091910486E08083E091C9
:101A90008E04F0918F04808180618083E0918E04B8
:101AA000F0918F04808188608083E0918E04F091B2
:101AB0008F04808180688083E0918E04F0918F0490
:101AC00080818F7D808362EE74E089EB91E00E94DB
:101AD000420962EE74E085EC91E00E94420962EEF8
:101AE00074E082EC91E00E94420962EE74E088ECBE
:101AF00091E00E94420963E274E08BEC91E00E9465
:101B0000420963E274E089ED91E00E94420963E2D8
:101B100074E08DED91E00E94420963EB73E081EE89
:101B200091E00E94420963EB73E081EF91E00E9433
:101B3000420963EB73E085EF91E00E9442096EE891
:101B400075E089EF91E00E9442096EE875E08FEF41
:101B500091E00E9442096EE875E083E092E00E9405
:101B6000420967E973E087E092E00E94420967E971
:101B700073E085E192E00E94420967E973E089E140
:101B800092E00E94420969ED75E08DE192E00E94C9
:101B9000420969ED75E083E292E00E94420969ED35
:101BA00075E087E292E00E9442096CE673E08BE206
:101BB00092E00E9442096CE673E08BE392E00E949F
:101BC00042096CE673E08FE392E00E94420961E40F
:101BD00073E083E492E00E94420961E473E08FE4E1
:101BE00092E00E94420961E473E083E592E00E9482
:101BF000420960EF72E087E592E00E94420960EFDF
:101C000072E084E692E00E94420960EF72E088E6AA
:101C100092E00E94420965EC72E08CE692E00E943C
:101C2000420965EC72E08CE792E00E94420965ECA3
:101C300072E080E892E00E9442096AE972E084E87A
:101C400092E00E9442096AE972E08AE992E00E9409
:101C500042096AE972E08EE992E00E94420965EE6B
:101C600073E082EA92E00E94420965EE73E080EB45
:101C700092E00E94420965EE73E084EB92E00E94DC
:101C800042096BE772E088EB92E00E9442096BE741
:101C900072E080EC92E00E9442096BE772E083EC14
:101CA00092E00E94420966E574E086EC92E00E94B0
:101CB000420966E574E082ED92E00E94420966E521
:101CC00074E087ED92E00E9442096CE372E08CEDD3
:101CD00092E00E9442096CE372E081EE92E00E9481
:101CE000420969E272E086EE92E00E94420969E2EE
:101CF00072E08CEE92E00E94420980E392E09093C1
:101D00001D0580931C0582EF92E00E94BA0788EFC0
:101D100092E00E94BA070E94E204412C27E8522E6A
:101D200023E9622E23E0722E3CEF232E31E0332E86
:101D30008CE794E00E944B01181619060CF05FC066
:101D40008CE794E00E94290190912005891340C0FE
:101D500046EA55E06EE175E081E295E00E94D61317
:101D60008C01892B81F1C0901B05D12C2091190584
:101D700030911A053A832983E12CF12CEC14FD04EF
:101D8000D4F4A980BA8048E050E0B501C8010E94AF
:101D9000181CA501455F5F4F5A834983892B39F48D
:101DA000D5011996ED91FC911A9709950CC0BFEFDA
:101DB000EB1AFB0AE3CFE0911C05F0911D0530976B
:101DC00011F0C8010995109221051092A505B0CF18
:101DD000803208F4ADCF9091A505933808F0A8CFD4
:101DE00021E0290F2093A505E92FF0E0E75EFA4FE7
:101DF0008087E22FF0E0E75EFA4F108699CF80915E
:101E00005E048111FBC260915A0470915B04809161
:101E10005C0490915D0428EE33E040E050E00E94C5
:101E2000DF16672B682B692B09F0A1C1209156049E
:101E3000309157044091580450915904C090520475
:101E4000D0905304E0905404F0905504AAE0B0E020
:101E50000E9401170E9488154B015C016093750474
:101E6000709376048093770490937804AAE0B0E0AE
:101E7000A70196010E9401170E9488156B017C0141
:101E8000609371047093720480937304909374044C
:101E900020E030E04AE754E4C501B4010E94E915AE
:101EA000A70196010E94BF1760934E0470934F04E0
:101EB00080935004909351040E9465186B017C013B
:101EC00060914A0470914B0480914C0490914D04B0
:101ED0000E9465189B01AC01C701B6010E94521710
:101EE000DC01CB01B05880936D0490936E04A093F5
:101EF0006F04B093700484E093E00E94B80760918F
:101F00005A0470915B0480915C0490915D044AE0F6
:101F10000E94C80788E093E00E94B80760914E04D1
:101F200070914F04809150049091510444E00E94BC
:101F30001F088CE093E00E94B80720E030E04AE7F9
:101F400054E46091750470917604809177049091C7
:101F500078040E94BF1743E00E941F0881E193E0CC
:101F60000E94B80720E030E04AE754E46091710431
:101F70007091720480917304909174040E94BF1751
:101F800043E00E941F0886E193E00E94B807609139
:101F90006D0470916E0480916F049091700442E022
:101FA0000E941F088BE193E00E94B80720919C01DA
:101FB00030919D0140919E0150919F01C301B2015A
:101FC0000E94DF16CA01B9014AE00E94C80787E2F1
:101FD00093E00E94B807E8ECE0937C0080917A00DF
:101FE000806880937A0080917A00806480937A0080
:101FF0000E94610A6B017C0194E6892E912CA12C30
:10200000B12C0E94610ADC01CB018C199D09AE093B
:10201000BF09883E9340A105B10598F3F1E08F1AFE
:102020009108A108B10828EEC20E23E0D21EE11CDF
:10203000F11C81149104A104B10419F780917A0074
:1020400086FDFCCF609178007091790080E090E08F
:102050000E94881529E030EF4CE85AE30E94E91508
:1020600024E53CE34FE952E40E94E91520E030E02A
:1020700040EE50E40E94521742E00E941F088EE298
:1020800093E00E94B80744E440937C0080917A007A
:10209000806480937A0080917A0086FDFCCF609105
:1020A00078008091790070E0782B072E000C880B67
:1020B000990B0E948A1520E030E040EB51E40E9429
:1020C000E9159B01AC0160E078ED8FE997E40E948F
:1020D000BF1743E00E941F0883E294E00E94BA0702
:1020E00010925604109257041092580410925904FA
:1020F00010925204109253041092540410925504FA
:1021000030928D0120928C018091690083608093D0
:102110006900E89A82E592E090938F0180938E01A6
:102120000E94080980913D04882361F030928D015E
:1021300020928C0180916900836080936900E89A05
:1021400010923D0480913C04882389F0A2E5B2E01E
:10215000B0938F01A0938E010E94080910923C0455
:10216000609138047091390489E00E94020A0E944B
:10217000610A00914604109147042091480430916F
:1021800049046B017C0186E0F694E794D794C794E8
:102190008A95D1F7C01AD10AE20AF30AC701B6013B
:1021A0000E948A1520E034E244E759E40E94601856
:1021B00018165CF4B1E0B093A001C0929C01D092DB
:1021C0009D01E0929E01F0929F018091A0018823E1
:1021D00009F49AC0C0909C01D0909D01E0909E01AE
:1021E000F0909F01209188013091890140918A01EE
:1021F00050918B01C301B2010E94DF16C21AD30AAB
:10220000E40AF50A8091630490916404A091650446
:10221000B0916604A7019601281B390B4A0B5B0B92
:10222000CA01B901C0926304D0926404E0926504CB
:10223000F0926604209184013091850140918601DD
:102240005091870129833A834B835C8326EF3FEFCC
:102250004FEF5FEF0E94F719C20ED31EE41EF51E6A
:1022600089819A81AB81BC81C80ED91EEA1EFB1EF2
:10227000C0928401D0928501E0928601F09287019C
:102280008091840190918501A0918601B091870190
:10229000B7FD16C08091840190918501A0918601BF
:1022A000B09187018136934EA641B1056CF48091BF
:1022B000840190918501A0918601B091870108C0A9
:1022C00080E090E0DC0104C080E693EEA6E1B0E09F
:1022D0008093840190938501A0938601B093870138
:1022E00060918401709185018091860190918701B0
:1022F00020E137E240E050E00E94F719B90186E0A2
:102300000E94020A1092A001C0904204D09043049F
:10231000E0904404F090450420E030E0A901C701BA
:10232000B6010E948315882309F468C080913E0499
:1023300090913F04A0914004B0914104892B8A2BD5
:102340008B2B09F05BC020914E0430914F044091DB
:10235000500450915104C701B6010E94601818162C
:1023600034F580916C04811128C040915A04509139
:102370005B0460915C0470915D04009168041091AD
:10238000690420916A0430916B04809198019091C6
:102390009901A0919A01B0919B01800F911FA21FFA
:1023A000B31F84179507A607B70758F127C01092E7
:1023B000670480916C04882309F140915A0450917C
:1023C0005B0460915C0470915D040091680410915D
:1023D000690420916A0430916B048091900190917E
:1023E0009101A0919201B0919301800F911FA21FC2
:1023F000B31F84179507A607B70760F10E94F20183
:1024000097CC809167048F5F833008F1F3E0F093FD
:1024100067046091940170E085E00E94020A21E067
:1024200020936C0480915A0490915B04A0915C0409
:10243000B0915D048093680490936904A0936A044A
:10244000B0936B0489E393E00E94BA07B2CF809304
:102450006704D4CF60E070E085E00E94020A109229
:102460006C0482E493E00E94BA07C8CFCF93DF9355
:10247000ECE7F4E01382128288EE93E0A0E0B0E093
:1024800084839583A683B7838BEA91E091838083CD
:1024900085EC90E09587848784EC90E09787868729
:1024A00080EC90E0918B808B81EC90E0938B828B21
:1024B00082EC90E0958B848B86EC90E0978B868BFA
:1024C000118E128E138E148EEDE7F1E085919491AA
:1024D000E8EAF5E0918380838DE690E09383828340
:1024E00084E084831582168211861086C9E1D5E0C6
:1024F000198218821A821C821B828AE08F831092B2
:10250000A7051092A60566EE73E08EE195E00E94A5
:10251000111C18861092A505DF91CF910895A0E0B7
:10252000B0E0E5E9F2E10C940D175C016B017A0172
:102530006115710519F0FB0191838083E114F104A9
:1025400029F0C7010297839708F0C9C0E5012196D9
:10255000F5011081812F90E00E94CD13892B11F09D
:102560005E01F4CF1D3229F42196F501118101E0BD
:1025700007C01B3221F4E5012296F501118100E02C
:10258000E114F104B1F0F0E1EF16F10429F4B0C068
:1025900010E3E114F10401F12AE0E216F104B1F1D3
:1025A00080E1E816F10471F0E8E0EE16F104F1F4D0
:1025B00013C0103341F588818F7D883549F7198123
:1025C00022960260F0E1EF2EF12C88248A94982C58
:1025D000A82CAFE0BA2E20C078E0E72EF12C88249A
:1025E0008A94982CA82CEFE1BE2E16C06FEF7FEFD7
:1025F000CB0197010F2C000C440B550B0E94DF16EA
:1026000049015A0109C08AE0E82EF12C69E9862EB9
:10261000982CA82C69E1B62E40E060E070E0CB0178
:1026200027010F2C000C66087708FE0150ED352EAF
:10263000310E29E0231570F42FEB210F2A3118F405
:1026400039EC332E06C02FE9210F2A3130F529EA63
:10265000322E310E232D30E02E153F05F4F44F3F7E
:10266000C9F086169706A806B90688F0A30192015C
:102670000E94CF16232D30E040E050E0620F731F20
:10268000841F951F621773078407950710F44FEF97
:1026900001C041E021961081C8CFC114D10451F08E
:1026A000442311F0219703C001FF04C02297F601D3
:1026B000D183C08300FF07C0909580957095619588
:1026C0007F4F8F4F9F4F4F3F79F482E290E090937E
:1026D000BC058093BB053FEF2FEF9FEF0DC040E09F
:1026E00030E020E090E008C0462F372F282F04C0AC
:1026F000103309F067CF5FCF642F732F822FCDB7D0
:10270000DEB7E1E10C942917662777270C941A1499
:10271000FC0188279927E89421912032E9F3293098
:1027200010F02E30C8F32B3241F02D3239F468947A
:1027300004C00E941214820F911D219120532A304F
:10274000C0F31EF4909581959F4F08951F93FC014F
:1027500099278827BC01E89411911032E9F31930C8
:1027600010F01E30C8F31B3251F01D3249F468944A
:1027700006C00E94FD13610F711D811D911D1191F5
:1027800010531A30B0F33EF4909580957095619592
:102790007F4F8F4F9F4F1F91089591110C94681593
:1027A000803219F089508550C8F70895FA01A19137
:1027B000B081009719F41097E1F0CD01DC01CD0153
:1027C0000D90002011F4C00113C0FB0121912223C0
:1027D00019F02015D9F7F3CFFB012191201519F439
:1027E0001E92119606C02223C1F70D900020A1F77A
:1027F000D001FA01A193B0830895592F482F372FA4
:10280000262F660F771F881F991F660F771F881F57
:10281000991F620F731F841F951F660F771F881FF4
:10282000991F08957AE0979F902D879F802D910D95
:1028300011240895A0E0B0E0E0E2F4E10C94121756
:10284000EC016B016115710519F0FB019183808327
:102850007E01FFEFEF1AFF0A0881802F90E00E94AF
:10286000CD13892B11F0E701F3CF0D3239F47E013E
:1028700082E0E80EF11C098111E008C00B3229F456
:102880007E0192E0E90EF11C098110E0E701219739
:1028900043E050E062EF70E0CE010E946B15892B9F
:1028A000C1F4239645E050E06DEE70E0CE010E9449
:1028B0006B15892B09F42596C114D10419F0F60182
:1028C000D183C0831111F6C060E070E080E89FE71B
:1028D000FAC043E050E06AEE70E0CE010E946B1552
:1028E000892B59F4C114D10409F4E9C0F2E0EF0EC8
:1028F000F11CF601F182E082E2C020E030E0A901A3
:10290000C0E0D0E0F70180EDA82EA00E89E08A1586
:1029100030F1912F9260B92E812F887012FF04C080
:10292000811124C0219622C081112197A5E0B0E039
:102930000E940117DC01CB01880F991FAA1FBB1F42
:102940009C01AD012A0D311D411D511D283989E918
:102950003807480789E1580748F0166006C09EEF1F
:10296000A9120AC013FD40C01860B12E8FEFE81AFB
:10297000F80A00811B2DC6CF802F8F7D8534A1F5ED
:1029800080818D3211F4106106C08B3221F03196B6
:1029900061E070E004C08181329662E070E08053B3
:1029A0008A3018F0E61BF70B1FC060E070E060385B
:1029B0009CE079075CF4DB01AA0FBB1FAA0FBB1FC9
:1029C0006A0F7B1F660F771F680F711D3196DF013D
:1029D00011978C9180538A3050F314FF03C0719586
:1029E00061957109C60FD71F11FF08C0C114D1042A
:1029F00029F0CF010197F60191838083CA01B901C3
:102A00000E948815212F2370233019F04B015C019F
:102A100006C04B015C01B7FAB094B7F8B09420E05F
:102A200030E0A901C501B4010E948315882309F48F
:102A30003EC0D7FF06C0D195C195D10909E011E08C
:102A400002C001E211E06801F8E1CF1AD10890E27A
:102A5000E92EF12CCE15DF0574F0F80125913591A2
:102A600045915491C501B4010E94E9154B015C01E7
:102A7000CE19DF09EFCF04501109F594E7940C1536
:102A80001D0541F78A2D880F8B2D881F8F3F49F038
:102A900020E030E0A901C501B4010E948315811135
:102AA00006C082E290E09093BC058093BB05C5010F
:102AB000B40109C060E070E080E89FEF04C060E00E
:102AC00070E080EC9FE7CDB7DEB7ECE00C942E17FA
:102AD000992788270895FB01DC014150504088F078
:102AE0008D9181341CF08B350CF4805E65916134DE
:102AF0001CF06B350CF4605E861B611171F3990B51
:102B00000895881BFCCF0E94C51508F481E0089544
:102B1000E89409C097FB3EF4909580957095619577
:102B20007F4F8F4F9F4F9923A9F0F92F96E9BB272D
:102B30009395F695879577956795B795F111F8CFA9
:102B4000FAF4BB0F11F460FF1BC06F5F7F4F8F4F14
:102B50009F4F16C0882311F096E911C0772321F00A
:102B60009EE8872F762F05C0662371F096E8862FA2
:102B700070E060E02AF09A95660F771F881FDAF7F9
:102B8000880F9695879597F90895990F0008550F26
:102B9000AA0BE0E8FEEF16161706E807F907C0F0E3
:102BA00012161306E407F50798F0621B730B840BEB
:102BB000950B39F40A2661F0232B242B252B21F4C5
:102BC00008950A2609F4A140A6958FEF811D811D65
:102BD00008950E94FC150C946D160E945F1638F043
:102BE0000E94661620F0952311F00C9456160C9452
:102BF0005C1611240C94A1160E947E1670F3959F0A
:102C0000C1F3950F50E0551F629FF001729FBB27E3
:102C1000F00DB11D639FAA27F00DB11DAA1F649F7F
:102C20006627B00DA11D661F829F2227B00DA11D32
:102C3000621F739FB00DA11D621F839FA00D611DB8
:102C4000221F749F3327A00D611D231F849F600DD9
:102C5000211D822F762F6A2F11249F5750409AF002
:102C6000F1F088234AF0EE0FFF1FBB1F661F771F8E
:102C7000881F91505040A9F79E3F510580F00C9459
:102C800056160C94A1165F3FE4F3983ED4F3869554
:102C900077956795B795F795E7959F5FC1F7FE2BF9
:102CA000880F911D9695879597F9089597F99F67D5
:102CB00080E870E060E008959FEF80EC08950024C4
:102CC0000A941616170618060906089500240A9491
:102CD00012161306140605060895092E0394000C17
:102CE00011F4882352F0BB0F40F4BF2B11F460FFA6
:102CF00004C06F5F7F4F8F4F9F4F089557FD9058CF
:102D0000440F551F59F05F3F71F04795880F97FBAF
:102D1000991F61F09F3F79F0879508951216130669
:102D20001406551FF2CF4695F1DF08C01616170698
:102D30001806991FF1CF86957105610508940895CD
:102D4000E894BB2766277727CB0197F90895DC0124
:102D5000CB01FC01F999FECF06C0F2BDE1BDF89AA6
:102D6000319600B40D9241505040B8F70895DC01FF
:102D7000CB0103C02D910E94C21641505040D0F7A4
:102D80000895262FF999FECF1FBA92BD81BD20BDAF
:102D90000FB6F894FA9AF99A0FBE01960895DB01DE
:102DA0008F939F930E940117BF91AF91A29F800DB7
:102DB000911DA39F900DB29F900D11240895A1E243
:102DC0001A2EAA1BBB1BFD010DC0AA1FBB1FEE1FA5
:102DD000FF1FA217B307E407F50720F0A21BB30BF0
:102DE000E40BF50B661F771F881F991F1A9469F76C
:102DF00060957095809590959B01AC01BD01CF01C8
:102E000008950E944317A59F900DB49F900DA49F15
:102E1000800D911D112408952F923F924F925F9241
:102E20006F927F928F929F92AF92BF92CF92DF92DA
:102E3000EF92FF920F931F93CF93DF93CDB7DEB73F
:102E4000CA1BDB0B0FB6F894DEBF0FBECDBF0994D3
:102E50002A88398848885F846E847D848C849B842A
:102E6000AA84B984C884DF80EE80FD800C811B8138
:102E7000AA81B981CE0FD11D0FB6F894DEBF0FBE67
:102E8000CDBFED010895A29FB001B39FC001A39FE4
:102E9000700D811D1124911DB29F700D811D112493
:102EA000911D08955058BB27AA270E946A170C94B9
:102EB0006D160E945F1638F00E94661620F039F4F5
:102EC0009F3F19F426F40C945C160EF4E095E7FB92
:102ED0000C945616E92F0E947E1658F3BA17620713
:102EE00073078407950720F079F4A6F50C94A016D3
:102EF0000EF4E0950B2EBA2FA02D0B01B901900115
:102F00000C01CA01A0011124FF27591B99F0593F58
:102F100050F4503E68F11A16F040A22F232F342FA0
:102F20004427585FF3CF469537952795A795F040EE
:102F30005395C9F77EF41F16BA0B620B730B840B03
:102F4000BAF09150A1F0FF0FBB1F661F771F881FBB
:102F5000C2F70EC0BA0F621F731F841F48F4879513
:102F600077956795B795F7959E3F08F0B0CF939505
:102F7000880F08F09927EE0F9795879508950E947E
:102F8000D3170C946D160E94661658F00E945F16B7
:102F900040F029F45F3F29F00C94561651110C941F
:102FA000A1160C945C160E947E1668F39923B1F367
:102FB000552391F3951B550BBB27AA27621773075F
:102FC000840738F09F5F5F4F220F331F441FAA1FF3
:102FD000A9F335D00E2E3AF0E0E832D091505040AF
:102FE000E695001CCAF72BD0FE2F29D0660F771F5D
:102FF000881FBB1F261737074807AB07B0E809F043
:10300000BB0B802DBF01FF2793585F4F3AF09E3FC7
:10301000510578F00C9456160C94A1165F3FE4F31A
:10302000983ED4F3869577956795B795F7959F5F0A
:10303000C9F7880F911D9695879597F90895E1E056
:10304000660F771F881FBB1F621773078407BA07B5
:1030500020F0621B730B840BBA0BEE1F88F7E09510
:1030600008950E94861688F09F5798F0B92F9927E7
:10307000B751B0F0E1F0660F771F881F991F1AF063
:10308000BA95C9F714C0B13091F00E94A016B1E012
:1030900008950C94A016672F782F8827B85F39F011
:1030A000B93FCCF3869577956795B395D9F73EF4FC
:1030B00090958095709561957F4F8F4F9F4F0895A4
:1030C0000E94C51508F48FEF08950E94751829ED28
:1030D0003BE54EED5EE30C94E91516F00C944C19AB
:1030E0000C945C1668940C9456160E948616A8F3ED
:1030F0009923C1F3AEF3DF93CF931F930F93FF9206
:10310000C92FDD2788232AF02197660F771F881F94
:10311000DAF720E030E040E85FEB9FE3883920F009
:10312000803E38F021968F770E945317E8E6F0E052
:1031300004C00E945317E5E9F0E00E945A198B0180
:10314000BE01EC01FB2E6F5771097595771F880B37
:10315000990B0E948A1528E132E741E35FE30E9460
:10316000FC15AF2D9801AE01FF900F911F91CF91EB
:10317000DF910E946A170C946D16FA01EE0FFF1F83
:10318000309621053105A1F16115710561F4803892
:10319000BFE39B0749F168949038810561F080385E
:1031A000BFEF9B0741F099234AF5FF3FE105310549
:1031B000210519F1E8940894E795D901AA2329F487
:1031C000AB2FBE2FF85FD0F310C0FF5F70F4A69551
:1031D000E0F7F73950F019F0FF3A38F49F779F93F2
:1031E0000DD00F9007FC9058089546F00C945C1693
:1031F00060E070E080E89FE308954FE79F775F937A
:103200004F933F932F930E9475182F913F914F91A9
:103210005F910E94E9150C941A190E94C515880B3C
:10322000990B089529F416F00C9456160C94A016D8
:103230000C945C160E948616A8F39638A0F707F83F
:103240000F92E8942BE33AEA48EB5FE70E94FF1500
:103250000F920F920F924DB75EB70F920E94C31953
:10326000E2ECF0E00E945A194F915F91EF91FF91CB
:10327000E595EE1FFF1F49F0FE57E0684427EE0F6B
:10328000441FFA95E1F74195550B0E948D190F9057
:1032900007FE0C94811908959F3F31F0915020F45E
:1032A000879577956795B795880F911D9695879522
:1032B00097F90895DF93CF931F930F93FF92EF92A7
:1032C000DF927B018C01689406C0DA2EEF010E9428
:1032D000FC15FE01E894A5912591359145915591F4
:1032E000A6F3EF010E946A17FE019701A801DA9484
:1032F00069F7DF90EF90FF900F911F91CF91DF91D1
:1033000008959B01AC0160E070E080E89FE30C94BD
:10331000BF170C9456160C944C190E948616D8F3BD
:103320009923C9F3940F511DA3F39150504094F089
:1033300059F0882332F0660F771F881F9150504054
:10334000C1F79E3F51052CF7880F911D96958795E3
:1033500097F908955F3FACF0983E9CF0BB278695A7
:1033600077956795B79508F4B1609395C1F7BB0F52
:1033700058F711F460FFE8CF6F5F7F4F8F4F9F4F7B
:10338000E3CF0C94A116FA01DC01AA0FBB1F9B012D
:10339000AC01BF5728F4222733274427507820C098
:1033A000B75190F4AB2F0024469537952795011C13
:1033B000A395D2F3002071F0220F331F441FB39561
:1033C000DAF30ED00C94521761307105A0E88A0729
:1033D000B94630F49B01AC0166277727882790789F
:1033E000309621F020833183428353830895052E44
:1033F00097FB1EF400940E940E1A57FD07D00E94FE
:10340000DF1607FC03D04EF40C940E1A509540952D
:10341000309521953F4F4F4F5F4F08959095809580
:10342000709561957F4F8F4F9F4F0895EE0FFF1F4F
:103430000590F491E02D09940F931F93CF93DF93A0
:103440008230910510F482E090E0E091BF05F091A8
:10345000C00520E030E0A0E0B0E0309719F14081F5
:1034600051810281138148175907C8F084179507C5
:1034700069F4109731F012960C93129713961C93DF
:1034800027C00093BF051093C00522C02115310548
:1034900019F04217530718F49A01BD01EF01DF013B
:1034A000F801DBCF21153105F9F0281B390B243049
:1034B000310580F48A819B816115710521F0FB0142
:1034C0009383828304C09093C0058093BF05FE015F
:1034D000329644C0FE01E20FF31F81939193225074
:1034E0003109398328833AC02091BD053091BE054A
:1034F000232B41F42091A3013091A4013093BE0508
:103500002093BD052091A1013091A2012115310523
:1035100041F42DB73EB74091A5015091A601241B5F
:10352000350BE091BD05F091BE05E217F307A0F45D
:103530002E1B3F0B2817390778F0AC014E5F5F4F09
:103540002417350748F04E0F5F1F5093BE05409378
:10355000BD058193919302C0E0E0F0E0CF01DF91DF
:10356000CF911F910F910895CF93DF93009709F4A6
:1035700081C0FC01329713821282A091BF05B091E5
:10358000C005109781F420813181820F931F209113
:10359000BD053091BE052817390751F5F093BE05DA
:1035A000E093BD0567C0ED0120E030E0CE17DF07F6
:1035B00040F44A815B819E0141155105F1F0EA0119
:1035C000F5CFD383C28340815181840F951FC817E3
:1035D000D90759F488819981840F951F02969183A8
:1035E00080838A819B81938382832115310529F40D
:1035F000F093C005E093BF053DC0E901FB83EA837A
:1036000049915991C40FD51FEC17FD0761F48081D2
:103610009181840F951F0296E901998388838281A5
:1036200093819B838A83E0E0F0E012968D919C91D8
:103630001397009719F0FD01DC01F7CF8D919C9154
:1036400011979D012E5F3F4F820F931F2091BD0563
:103650003091BE052817390769F4309729F4109284
:10366000C0051092BF0502C013821282B093BE053E
:10367000A093BD05DF91CF910895A0E0B0E0E3E411
:10368000FBE10C941017EC01009721F4CB010E9490
:103690001C1AB4C0FC01E60FF71F9C01225031092F
:1036A000E217F30708F4A8C0D9010D911C911197F6
:1036B00006171707B0F00530110508F49BC0C801C4
:1036C00004978617970708F495C002501109061B46
:1036D000170B019311936D937C93CF010E94B41A41
:1036E00089C05B01A01AB10A4C01800E911EA09105
:1036F000BF05B091C005612C712CE12CF12C109705
:1037000009F446C08D919C911197A815B905B1F5A2
:103710006C0142E0C40ED11CCA14DB0478F14C01E8
:103720008A189B08640142E0C40ED11C1296BC901A
:1037300012971396AC91B5E0CB16D10440F0B2824B
:10374000A38391828082D9016D937C9309C00E5F1F
:103750001F4F800F911FF90191838083EB2DFA2F6A
:10376000E114F10431F0D7011396FC93EE93129714
:1037700041C0F093C005E093BF053CC068167906D0
:1037800008F43C017D0112960D90BC91A02DB7CF9D
:103790008091BD059091BE0588169906E1F46616E4
:1037A0007706C8F48091A1019091A201009741F49D
:1037B0008DB79EB74091A5015091A601841B950B32
:1037C000E817F907C8F4F093BE05E093BD05F901C9
:1037D000718360830FC0CB010E941C1A7C0100978B
:1037E00059F0A801BE010E94081CCE010E94B41A23
:1037F000C70104C0CE0102C080E090E0CDB7DEB7C3
:10380000EEE00C942C1781E090E0F8940C94351CB9
:10381000FB01DC0102C001900D9241505040D8F7ED
:103820000895FB01DC0101900D920020E1F708955D
:10383000FB01DC014150504030F08D910190801926
:1038400019F40020B9F7881B990B0895FB01DC01DE
:103850004150504048F001900D920020C9F701C03E
:0E3860001D9241505040E0F70895F894FFCFBC
:10386E00646576696365206E616D65000000000019
:10387E00000000000000000000000000000000003A
:10388E00000000000000000000000000000000002A
:10389E00000000000000000000000000000000001A
:1038AE00000000000000000000000000000000000A
:1038BE0000000000000000000000000000000000FA
:1038CE0000000000000000000000000000000000EA
:1038DE0000000000000000000000000000000000DA
:1038EE000000803FE093FFFF20030000EB00EB00A1
:1038FE00E8030000FF000000881300009F8601000F
:10390E00010000C1058000000000008301EC001AD8
:10391E0001D0014B0129013D016765745365747433
:10392E00696E6773004753006C730073657444656A
:10393E00766963654E616D650053444E0073646E27
:10394E000073657441697270756D70506F77657232
:10395E000053415000736170007365744930005319
:10396E00493000736930007365744D616E75616C1A
:10397E0050756D7000534D5000736D70007365740B
:10398E004F4400534F4400736F6400736574507559
:10399E006D704475726174696F6E0053504400739C
:1039AE0070640073657450756D704D6F646500536F
:1039BE00504D0073706D0073657450756D70506F5F
:1039CE0077657200535050007370700073657450B9
:1039DE00756D70496E74657276616C005350570048
:1039EE007370770073657453746972726572546183
:1039FE007267657453706565640053535300737337
:103A0E0073007365744C61736572506F77657200E5
:103A1E00534C5000736C700073657454696D65007F
:103A2E005354007374007365744465766963654915
:103A3E0044005344494400736469640048414C5443
:103A4E000068616C7400524553455400726573658D
:103A5E0074005354415254005475726269646F730A
:103A6E007461740009743D0009493D000949613DC6
:103A7E00000949623D00094F443D0009665F7374B9
:103A8E0069727265723D000974656D703D0009566C
:103A9E005F737570706C793D0070756D703A206F44
:103AAE006E0070756D703A206F6666007265736594
:103ABE007474696E6700756E6B6E6F776E20636FD0
:103ACE006D6D616E64200068616C746564005354A2
:103ADE003A2000737469727265725461726765740C
:103AEE0053706565643A200070756D70496E74652B
:103AFE007276616C3A200070756D704D6F64653A28
:103B0E00200070756D704475726174696F6E3A2025
:103B1E000061697270756D70506F7765723A200032
:103B2E006C61736572506F7765723A2000646576CA
:103B3E006963654E616D653A2000646576696365FB
:103B4E0049443A20002C2000646576696365496417
:103B5E00456570726F6D0076657273696F6E3A208F
:103B6E0000302E34303500746172676574493A2026
:103B7E000049303A20007461726765744F443A20F0
:103B8E00000D0A006E616E00696E66006F7666004B
:00000001FF
